:020000040800F2
:1000000000040020ED0000080000000000000000D7
:1000100000000000000000000000000000000000E0
:1000200000000000000000000000000000000000D0
:1000300000000000000000000000000000000000C0
:1000400000000000000000000000000000000000B0
:1000500000000000000000000000000000000000A0
:100060000000000000000000000000000000000090
:100070000000000000000000000000000000000080
:100080000000000000000000000000000000000070
:100090000000000000000000000000000000000060
:1000A0000000000000000000000000000000000050
:1000B0000000000000000000000000000000000040
:1000C0000000000000000000000000000000000030
:1000D0000000000000000000000000000000000020
:1000E0000000000000000000000000000E480F4962
:1000F00090F80090B9F1000F15D0B9F1200F0BD096
:10010000B9F1600F08DC09F1200981F8009000F1D5
:10011000010001F10101EBE781F8009000F101001D
:1001200001F10101E4E7FEE71000002000010020DA
:0400000508000000EF
:00000001FF
